S01300004772615F64696F646F77612E73726563B1
S113000021C359C93AC339C338C337C336C335C307
S113001034C333C332C331C330C32FC32EC32DC340
S11300202CC32BC32AC329C328C327C326C325C370
S113003024C323C3AED5F0A83FD300408D142000C1
S1130040A1C8DA12813FD922DB20A4A62EAF220058
S11300503F21007F000000000000000000000000BD
S113006000000000000000F8000000000000003361
S11300703000000000100C06100C06000000000008
S11300800000000040C07840C0784000043F0404F1
S11300903F040400007088FC08300000001820FFB2
S11300A0211E0000F008F000E018000000211C03ED
S11300B01E211E0000F00888700000001E21232469
S11300C01927211010160E00000000000000000087
S11300D000000000000000E0180402000000000717
S11300E01820400000020418E0000000004020181E
S11300F007000000404080F0804040000202010FF1
S113010001020200000000F0000000000101011FD4
S113011001010100000000000000000080B0700038
S113012000000000000000000000000000010101C8
S11301300101010100000000000000000030300057
S11301400000000000000000806018040060180631
S11301500100000000E010080810E000000F10206B
S113016020100F00001010F8000000000020203FB5
S1130170202000000070080808887000003028243F
S113018022213000003008888848300000182020E0
S113019020110E000000C02010F800000007042405
S11301A0243F240000F8088888080800001921204A
S11301B020110E0000E0108888180000000F1120A4
S11301C020110E0000380808C83808000000003F5D
S11301D0000000000070880808887000001C2221BC
S11301E021221C0000E010080810E0000000312269
S11301F022110F00000000C0C00000000000003009
S1130200300000000000008000000000000080605A
S113021000000000000080402010080000010204DB
S113022008102000404040404040400004040404C2
S1130230040404000008102040800000002010087E
S113024004020100007048080808F00000000030B3
S113025036010000C030C828E810E0000718272441
S113026023140B000000C038E0000000203C2302EF
S11302700227382008F8888888700000203F202052
S113028020110E00C0300808080838000718202084
S11302902010080008F808080810E000203F20207B
S11302A020100F0008F88888E8081000203F20205C
S11302B02320180008F88888E8081000203F200050
S11302C003000000C0300808083800000718202088
S11302D0221E020008F808000008F808203F210147
S11302E001213F20000808F8080800000020203FF2
S11302F02020000000000808F8080800C080808062
S11303007F00000008F888C028180800203F20015A
S11303102638200008F8080000000000203F2020B4
S11303202020300008F8F800F8F80800203F003FCB
S1130330003F200008F830C00008F808203F2000E3
S113034007183F00E01008080810E0000F102020F4
S113035020100F0008F808080808F000203F2101C9
S113036001010000E01008080810E0000F18242420
S113037038504F0008F8888888887000203F200093
S1130380030C302000708808080838000038202149
S113039021221C00180808F8080818000000203F53
S11303A02000000008F808000008F808001F2020BA
S11303B020201F000878880000C83808000007388B
S11303C00E010000F80800F80008F800033C0700DC
S11303D0073C0300081868808068180820302C0344
S11303E0032C30200838C800C83808000000203F1B
S11303F02000000010080808C8380800203826210A
S113040020201800000000FE020202000000007F0D
S113041040404000000C30C000000000000000011B
S11304200638C00000020202FE0000000040404006
S11304307F0000000000040202020400000000002B
S113044000000000000000000000000080808080A8
S11304508080808000020204000000000000000090
S11304600000000000008080808000000019242229
S113047022223F2008F8008080000000003F112065
S113048020110E000000008080800000000E11206A
S113049020201100000000808088F800000E112048
S11304A020103F200000808080800000001F222256
S11304B022221300008080F0888888180020203FC2
S11304C0202000000000808080808000006B9494D5
S11304D09493600008F8008080800000203F210091
S11304E000203F2000809898000000000020203F5A
S11304F020200000000000809898000000C0808048
S1130500807F000008F8000080808000203F2402E3
S11305102D302000000808F8000000000020203FD3
S1130520202000008080808080808000203F200088
S11305303F20003F8080008080800000203F210019
S113054000203F200000808080800000001F2020C9
S113055020201F00808000808000000080FFA120F8
S113056020110E000000008080808000000E112009
S113057020A0FF80808080008080800020203F2198
S1130580200001000000808080808000003324244B
S113059024241900008080E0808000000000001FF7
S11305A0202000008080000000808000001F2020A8
S11305B020103F20808080000080808000010E3069
S11305C00806010080800080008080800F300C03CA
S11305D00C300F0000808000808080000020312ECD
S11305E00E312000808080000080808080818E70A9
S11305F01806010000808080808080000021302C5B
S11306002221300000000000807C02020000000073
S1130610003F404000000000FF0000000000000018
S1130620FF0000000002027C800000000040403F08
S113063000000000000601010202040400000000A2
S11306400000000011241FBECFEFD4E0DEBFCDBFF9
S113065011E0A0E0B1E0EAEBF3E102C005900D92F5
S1130660A232B107D9F721E0A2E2B1E001C01D92A4
S1130670AA32B207E1F795D59EC6C2CC9C0140E0F0
S113068050E060E47FE180E090E024D6822F2031C6
S113069048F030E020513109C90199230CF4019646
S11306A0959587958093B800089584EA8093BC005B
S11306B0ECEBF0E080818823ECF7089584E98093E3
S11306C0BC00ECEBF0E0808184FFFDCF08958093C3
S11306D0BB0084E88093BC00ECEBF0E080818823CD
S11306E0ECF7089520E4829FC0011124846880936C
S11306F0BC00ECEBF0E080818823ECF78091BB0038
S11307000895CF9310922401D0DF85E7E0DF81E0E4
S1130710E9DFC82FD3DF8C2FCF910895C6DF88E798
S1130720D6DF80E0D4DF0895C0DF88E7D0DF80E43F
S1130730CEDF08950F931F93CF93DF93EFDFC4E3CE
S1130740D0E004E510E0FE018491C1DF2196C017DA
S1130750D107C9F7B3DFDF91CF911F910F910895AE
S1130760CF93DF93C82FD62FD9DF8D2F8770806B5F
S1130770AEDF8C2F8F70ABDF8C2F82958F708061F2
S1130780A6DF9CDFDF91CF910895CF93DF93D0E074
S11307906D2F80E0E5DFC8DFC0E880E098DFC1505E
S11307A0E1F7DF5FD830A1F7DF91CF9108958F9201
S11307B09F92AF92BF92CF92DF92EF92FF920F93EC
S11307C01F93CF93DF936C01962E842EF901A080A2
S11307D0AA2009F442C07901FFEFEF1AFF0AB12CF5
S11307E080E2A81AB108AA0CBB1CAA0CBB1CAA0C58
S11307F0BB1CAA0CBB1CE8E7E91510F48394912CEC
S1130800682D892DADDF90DF86010A0D1B1DE501E2
S11308102896CC0DDD1DF801849159DF0F5F1F4F21
S11308200C171D07C1F74ADF61E0680D892D98DFB9
S11308307BDF8501005F1F4F0C0D1D1DFE018491A0
S113084046DF2196C017D107C9F738DFF8E09F0EBD
S1130850F701A1907F01A110C2CFDF91CF911F9129
S11308600F91FF90EF90DF90CF90BF90AF909F904B
S11308708F900895CF93C82F18DF84E728DF8C2F3B
S113088026DF1CDFCF910895CF93DF93CDB7DEB77A
S11308902A970FB6F894DEBF0FBECDBF1092230186
S11308A0109222012FEF36E181E121503040804047
S11308B0E1F700C0000069DF2DE131E040E062E3D0
S11308C084E590E074DF21E031E044E06EE184E50A
S11308D090E06DDF4AE0BE016F5F7F4F809122019F
S11308E09091230135D59E012F5F3F4F46E06CE385
S11308F084E590E05CDF8FEFBDDF85B1836085B96F
S113090010922401289880912401882309F441C07D
S1130910F8DE80FD1FC08091220190912301019691
S113092090932301809322014AE0BE016F5F7F4FC1
S11309300FD52AE031E046E06CE384E590E037DF50
S11309409E012F5F3F4F46E06CE384E590E02FDF8C
S1130950289AE9C2809122019091230101979093F2
S11309602301809322014AE0BE016F5F7F4FF0D4E0
S11309702AE031E046E06CE384E590E018DF9E0174
S11309802F5F3F4F46E06CE384E590E010DF289A48
S1130990CAC28FEC97E00197F1F700C00000B3CF13
S11309A080912401882309F443C0ABDE86FD20C076
S11309B08FEF60DF80912201909123010196909343
S11309C02301809322014AE0BE016F5F7F4FC0D4B0
S11309D02AE031E046E06CE384E590E0E8DE9E0145
S11309E02F5F3F4F46E06CE384E590E0E0DEB6C263
S11309F08FEF40DF80912201909123010197909322
S1130A002301809322014AE0BE016F5F7F4FA0D48F
S1130A102AE031E046E06CE384E590E0C8DE9E0124
S1130A202F5F3F4F46E06CE384E590E0C0DE96C262
S1130A308FEC97E00197F1F700C00000B1CF8091EF
S1130A402401882309F443C05CDE86FD20C08FEFB7
S1130A5011DF80912201909123010196909323014B
S1130A60809322014AE0BE016F5F7F4F71D42AE078
S1130A7031E046E06CE384E590E099DE9E012F5F6F
S1130A803F4F46E06CE384E590E091DE82C28FEF55
S1130A90F1DE80912201909123010197909323012B
S1130AA0809322014AE0BE016F5F7F4F51D42AE058
S1130AB031E046E06CE384E590E079DE9E012F5F4F
S1130AC03F4F46E06CE384E590E071DE62C28FEC58
S1130AD097E00197F1F700C00000B1CF80912401A5
S1130AE0882309F443C00DDE82FD20C08FEFC2DEEF
S1130AF08091220190912301019690932301809388
S1130B0022014AE0BE016F5F7F4F22D42AE031E028
S1130B1046E06CE384E590E04ADE9E012F5F3F4FA0
S1130B2046E06CE384E590E042DE4EC28FEFA2DE45
S1130B308091220190912301019790932301809346
S1130B4022014AE0BE016F5F7F4F02D42AE031E008
S1130B5046E06CE384E590E02ADE9E012F5F3F4F80
S1130B6046E06CE384E590E022DE2EC28FEC97E051
S1130B700197F1F700C00000B1CF809124018823D0
S1130B8009F443C0BEDD85FD20C08FEF73DE809184
S1130B9022019091230101969093230180932201D5
S1130BA04AE0BE016F5F7F4FD3D32AE031E046E0D5
S1130BB06CE384E590E0FBDD9E012F5F3F4F46E050
S1130BC06CE384E590E0F3DD1AC28FEF53DE80918D
S1130BD02201909123010197909323018093220194
S1130BE04AE0BE016F5F7F4FB3D32AE031E046E0B5
S1130BF06CE384E590E0DBDD9E012F5F3F4F46E030
S1130C006CE384E590E0D3DDFAC18FEC97E00197C3
S1130C10F1F700C00000B1CF80912401882309F4CA
S1130C2043C06FDD86FD20C08FEF24DE809122015A
S1130C3090912301019690932301809322014AE02D
S1130C40BE016F5F7F4F84D32AE031E046E06CE35E
S1130C5084E590E0ACDD9E012F5F3F4F46E06CE3FE
S1130C6084E590E0A4DDE6C18FEF04DE80912201EB
S1130C7090912301019790932301809322014AE0EC
S1130C80BE016F5F7F4F64D32AE031E046E06CE33E
S1130C9084E590E08CDD9E012F5F3F4F46E06CE3DE
S1130CA084E590E084DDC6C18FEC97E00197F1F70D
S1130CB000C00000B1CF80912401882309F441C011
S1130CC020DD81FD1FC080912201909123010196B6
S1130CD090932301809322014AE0BE016F5F7F4F0E
S1130CE037D32AE031E046E06CE384E590E05FDD51
S1130CF09E012F5F3F4F46E06CE384E590E057DDB3
S1130D00299AB4C180912201909123010197909373
S1130D102301809322014AE0BE016F5F7F4F18D305
S1130D202AE031E046E06CE384E590E040DD9E019A
S1130D302F5F3F4F46E06CE384E590E038DD299A6D
S1130D4095C18FEC97E00197F1F700C00000B3CF95
S1130D5080912401882309F441C0D3DC80FD1FC0A5
S1130D608091220190912301019690932301809315
S1130D7022014AE0BE016F5F7F4FEAD22AE031E0F0
S1130D8046E06CE384E590E012DD9E012F5F3F4F67
S1130D9046E06CE384E590E00ADD289A83C1809103
S1130DA022019091230101979093230180932201C2
S1130DB04AE0BE016F5F7F4FCBD22AE031E046E0CC
S1130DC06CE384E590E0F3DC9E012F5F3F4F46E047
S1130DD06CE384E590E0EBDC289A64C18FEC97E047
S1130DE00197F1F700C00000B3CF8091240188235C
S1130DF009F443C086DC82FD20C08FEF3BDD809187
S1130E002201909123010196909323018093220162
S1130E104AE0BE016F5F7F4F9BD22AE031E046E09B
S1130E206CE384E590E0C3DC9E012F5F3F4F46E016
S1130E306CE384E590E0BBDC50C18FEF1BDD809157
S1130E402201909123010197909323018093220121
S1130E504AE0BE016F5F7F4F7BD22AE031E046E07B
S1130E606CE384E590E0A3DC9E012F5F3F4F46E0F6
S1130E706CE384E590E09BDC30C18FEC97E0019754
S1130E80F1F700C00000B1CF80912401882309F458
S1130E9043C037DC85FD20C08FEFECDC809122015C
S1130EA090912301019690932301809322014AE0BB
S1130EB0BE016F5F7F4F4CD22AE031E046E06CE325
S1130EC084E590E074DC9E012F5F3F4F46E06CE3C5
S1130ED084E590E06CDC1CC18FEFCCDC80912201B6
S1130EE090912301019790932301809322014AE07A
S1130EF0BE016F5F7F4F2CD22AE031E046E06CE305
S1130F0084E590E054DC9E012F5F3F4F46E06CE3A4
S1130F1084E590E04CDCFCC08FEC97E00197F1F79E
S1130F2000C00000B1CF8FEC97E00197F1F700C04B
S1130F3000009BB180E298279BB99FEF24E33CE03B
S1130F40915020403040E1F700C000009BB1892758
S1130F508BB9109224018FE78DDC22CD8FEC97E0C2
S1130F600197F1F700C000009BB180E298279BB97C
S1130F709FEF24E33CE0915020403040E1F700C073
S1130F8000009BB189278BB9109224018FE772DC92
S1130F9056CD8FEC97E00197F1F700C000009BB1AC
S1130FA080E298279BB99FEF24E33CE091502040D6
S1130FB03040E1F700C000009BB189278BB9109243
S1130FC0240187EF57DC8ACD8FEC97E00197F1F786
S1130FD000C000009BB180E298279BB99FEF24E3F7
S1130FE03CE0915020403040E1F700C000009BB14C
S1130FF089278BB9109224018FEE3CDCBECD8FEC97
S113100097E00197F1F700C000009BB180E29827B8
S11310109BB99FEF24E33CE0915020403040E1F73E
S113102000C000009BB189278BB9109224018FE77F
S113103021DCF2CD8FEC97E00197F1F700C00000BE
S11310409BB180E298279BB99FEF24E33CE0915049
S113105020403040E1F700C000009BB189278BB9E4
S11310601092240129988FEF05DC25CE8FEC97E0B0
S11310700197F1F700C000009BB180E298279BB96B
S11310809FEF24E33CE0915020403040E1F700C062
S113109000009BB189278BB91092240128988FEF07
S11310A0E9DB56CE8FEC97E00197F1F700C0000022
S11310B09BB180E298279BB99FEF24E33CE09150D9
S11310C020403040E1F700C000009BB189278BB974
S11310D01092240187EFCEDB88CE8FEC97E0019746
S11310E0F1F700C000009BB180E298279BB99FEF05
S11310F024E33CE0915020403040E1F700C0000080
S11311009BB189278BB9109224018FEEB3DBBCCE3F
S11311108FEC97E00197F1F700C000002DE031E07B
S113112040E068E284E590E042DB109224019FEF06
S113113024E33CE0915020403040E1F700C000003F
S11311409BB180E298279BB99FEF24E33CE0915048
S113115020403040E1F700C000009BB198279BB9C4
S11311609FEF24E33CE0915020403040E1F700C081
S113117000009BB198279BB99FEF24E33CE091507A
S113118020403040E1F700C000009BB189278BB9B3
S11311902A960FB6F894DEBF0FBECDBFDF91CF9174
S11311A00895789484B1836084B985B18C7F85B9BE
S11311B0559A8AB18B7D8AB984E690E05FDAE9E6D4
S11311C0F0E0808182608083E89A10922901109275
S11311D02801B0DA84E590E09093270180932601FA
S11311E080E280932501D1DA27E131E046E060E036
S11311F084E590E0DCDA8FEF3DDB2FEF80E792E0CF
S1131200215080409040E1F700C0000029982FEF62
S113121080E792E0215080409040E1F700C0000058
S113122028982FEF80E792E0215080409040E1F72A
S113123000C00000809100018F671CDB2FEF80E766
S113124092E0215080409040E1F700C0000080917E
S113125000018F660FDB2FEF80E792E02150804082
S11312609040E1F700C0000080910001876602DB36
S11312702FEF80E792E0215080409040E1F700C0DA
S113128000008FEFF7DA85B1836085B92FEF80E72F
S113129092E0215080409040E1F700C00000F4DA71
S11312A08091240181112DDA8FEC97E00197F1F7F9
S11312B000C00000A0CF1F920F920FB60F9211240E
S11312C08F9381E0809324018F910F900FBE0F9034
S11312D01F901895052E97FB16F400940FD057FD18
S11312E005D014D007FC02D046F408C050954095B0
S11312F0309521953F4F4F4F5F4F089590958095BE
S1131300709561957F4F8F4F9F4F0895A1E21A2EDC
S1131310AA1BBB1BFD010DC0AA1FBB1FEE1FFF1F95
S1131320A217B307E407F50720F0A21BB30BE40BE5
S1131330F50B661F771F881F991F1A9469F760952C
S11313407095809590959B01AC01BD01CF010895E6
S1131350BB274A3031F4992322F4BDE2909581955C
S11313609F4F01C0BB27FB015527AA27880F991F50
S1131370AA1FA41710F0A41B83955051B9F7A05DC0
S1131380AA3308F0A95DA193009779F7B111B1933D
S11313901192CB0100C0DC01FC01672F719177230E
S11313A0E1F7329704C07C916D9370836291AE171C
S10D13B0BF07C8F30895F894FFCFB7
S11313BA67506F696E74733A200020200047616D8C
S11313CA65204F7665720053746172742047616DAB
S10513DA6500A8
S9030000FC
